{
  "address": "0x42FC6E0A4C95E4376154186349b0671ca64EcD66",
  "abi": [
    {
      "inputs": [
        {
          "internalType": "contract Zephyr",
          "name": "_zephyrNftAddress",
          "type": "address"
        }
      ],
      "stateMutability": "nonpayable",
      "type": "constructor"
    },
    {
      "inputs": [],
      "name": "AccessControlBadConfirmation",
      "type": "error"
    },
    {
      "inputs": [
        {
          "internalType": "address",
          "name": "account",
          "type": "address"
        },
        {
          "internalType": "bytes32",
          "name": "neededRole",
          "type": "bytes32"
        }
      ],
      "name": "AccessControlUnauthorizedAccount",
      "type": "error"
    },
    {
      "inputs": [
        {
          "internalType": "bytes32",
          "name": "assetId",
          "type": "bytes32"
        }
      ],
      "name": "CannotFindAsset",
      "type": "error"
    },
    {
      "inputs": [],
      "name": "Unauthorized",
      "type": "error"
    },
    {
      "inputs": [
        {
          "internalType": "address",
          "name": "user",
          "type": "address"
        }
      ],
      "name": "UserAlreadyRegistered",
      "type": "error"
    },
    {
      "inputs": [
        {
          "internalType": "address",
          "name": "user",
          "type": "address"
        }
      ],
      "name": "UserNotRegistered",
      "type": "error"
    },
    {
      "anonymous": false,
      "inputs": [
        {
          "indexed": true,
          "internalType": "bytes32",
          "name": "role",
          "type": "bytes32"
        },
        {
          "indexed": true,
          "internalType": "bytes32",
          "name": "previousAdminRole",
          "type": "bytes32"
        },
        {
          "indexed": true,
          "internalType": "bytes32",
          "name": "newAdminRole",
          "type": "bytes32"
        }
      ],
      "name": "RoleAdminChanged",
      "type": "event"
    },
    {
      "anonymous": false,
      "inputs": [
        {
          "indexed": true,
          "internalType": "bytes32",
          "name": "role",
          "type": "bytes32"
        },
        {
          "indexed": true,
          "internalType": "address",
          "name": "account",
          "type": "address"
        },
        {
          "indexed": true,
          "internalType": "address",
          "name": "sender",
          "type": "address"
        }
      ],
      "name": "RoleGranted",
      "type": "event"
    },
    {
      "anonymous": false,
      "inputs": [
        {
          "indexed": true,
          "internalType": "bytes32",
          "name": "role",
          "type": "bytes32"
        },
        {
          "indexed": true,
          "internalType": "address",
          "name": "account",
          "type": "address"
        },
        {
          "indexed": true,
          "internalType": "address",
          "name": "sender",
          "type": "address"
        }
      ],
      "name": "RoleRevoked",
      "type": "event"
    },
    {
      "inputs": [],
      "name": "Bid",
      "outputs": [],
      "stateMutability": "pure",
      "type": "function"
    },
    {
      "inputs": [],
      "name": "Buy",
      "outputs": [
        {
          "internalType": "bool",
          "name": "",
          "type": "bool"
        }
      ],
      "stateMutability": "nonpayable",
      "type": "function"
    },
    {
      "inputs": [],
      "name": "DEFAULT_ADMIN_ROLE",
      "outputs": [
        {
          "internalType": "bytes32",
          "name": "",
          "type": "bytes32"
        }
      ],
      "stateMutability": "view",
      "type": "function"
    },
    {
      "inputs": [
        {
          "internalType": "address",
          "name": "",
          "type": "address"
        }
      ],
      "name": "HoldingAssets",
      "outputs": [
        {
          "internalType": "uint256",
          "name": "",
          "type": "uint256"
        }
      ],
      "stateMutability": "view",
      "type": "function"
    },
    {
      "inputs": [],
      "name": "MINTER_ROLE",
      "outputs": [
        {
          "internalType": "bytes32",
          "name": "",
          "type": "bytes32"
        }
      ],
      "stateMutability": "view",
      "type": "function"
    },
    {
      "inputs": [
        {
          "internalType": "uint256",
          "name": "",
          "type": "uint256"
        }
      ],
      "name": "assets",
      "outputs": [
        {
          "internalType": "address",
          "name": "holderAddress",
          "type": "address"
        },
        {
          "internalType": "bytes32",
          "name": "assetId",
          "type": "bytes32"
        },
        {
          "internalType": "string",
          "name": "description",
          "type": "string"
        },
        {
          "internalType": "uint256",
          "name": "price",
          "type": "uint256"
        },
        {
          "internalType": "enum AssetManager.assetType",
          "name": "classType",
          "type": "uint8"
        }
      ],
      "stateMutability": "view",
      "type": "function"
    },
    {
      "inputs": [
        {
          "internalType": "bytes32",
          "name": "_assetId",
          "type": "bytes32"
        },
        {
          "internalType": "string",
          "name": "_newDescription",
          "type": "string"
        },
        {
          "internalType": "uint256",
          "name": "_listingPrice",
          "type": "uint256"
        }
      ],
      "name": "createListing",
      "outputs": [
        {
          "internalType": "bool",
          "name": "",
          "type": "bool"
        }
      ],
      "stateMutability": "nonpayable",
      "type": "function"
    },
    {
      "inputs": [
        {
          "internalType": "address",
          "name": "_holderAddress",
          "type": "address"
        },
        {
          "internalType": "string",
          "name": "_description",
          "type": "string"
        },
        {
          "internalType": "uint256",
          "name": "_price",
          "type": "uint256"
        },
        {
          "internalType": "enum AssetManager.assetType",
          "name": "_classType",
          "type": "uint8"
        }
      ],
      "name": "createNewAsset",
      "outputs": [
        {
          "internalType": "bool",
          "name": "",
          "type": "bool"
        }
      ],
      "stateMutability": "nonpayable",
      "type": "function"
    },
    {
      "inputs": [],
      "name": "getNumberOfHolders",
      "outputs": [
        {
          "internalType": "uint256",
          "name": "",
          "type": "uint256"
        }
      ],
      "stateMutability": "view",
      "type": "function"
    },
    {
      "inputs": [
        {
          "internalType": "bytes32",
          "name": "role",
          "type": "bytes32"
        }
      ],
      "name": "getRoleAdmin",
      "outputs": [
        {
          "internalType": "bytes32",
          "name": "",
          "type": "bytes32"
        }
      ],
      "stateMutability": "view",
      "type": "function"
    },
    {
      "inputs": [
        {
          "internalType": "address",
          "name": "_userAddress",
          "type": "address"
        }
      ],
      "name": "getUserTransactionHistory",
      "outputs": [
        {
          "internalType": "enum AssetManager.transactionType[]",
          "name": "",
          "type": "uint8[]"
        }
      ],
      "stateMutability": "view",
      "type": "function"
    },
    {
      "inputs": [
        {
          "internalType": "bytes32",
          "name": "role",
          "type": "bytes32"
        },
        {
          "internalType": "address",
          "name": "account",
          "type": "address"
        }
      ],
      "name": "grantRole",
      "outputs": [],
      "stateMutability": "nonpayable",
      "type": "function"
    },
    {
      "inputs": [
        {
          "internalType": "bytes32",
          "name": "role",
          "type": "bytes32"
        },
        {
          "internalType": "address",
          "name": "account",
          "type": "address"
        }
      ],
      "name": "hasRole",
      "outputs": [
        {
          "internalType": "bool",
          "name": "",
          "type": "bool"
        }
      ],
      "stateMutability": "view",
      "type": "function"
    },
    {
      "inputs": [
        {
          "internalType": "bytes32",
          "name": "",
          "type": "bytes32"
        }
      ],
      "name": "idExists",
      "outputs": [
        {
          "internalType": "bool",
          "name": "",
          "type": "bool"
        }
      ],
      "stateMutability": "view",
      "type": "function"
    },
    {
      "inputs": [
        {
          "internalType": "address",
          "name": "",
          "type": "address"
        }
      ],
      "name": "isRegistered",
      "outputs": [
        {
          "internalType": "bool",
          "name": "",
          "type": "bool"
        }
      ],
      "stateMutability": "view",
      "type": "function"
    },
    {
      "inputs": [],
      "name": "modifyAssetAddressOwner",
      "outputs": [],
      "stateMutability": "nonpayable",
      "type": "function"
    },
    {
      "inputs": [],
      "name": "modifyAssetDescription",
      "outputs": [],
      "stateMutability": "nonpayable",
      "type": "function"
    },
    {
      "inputs": [],
      "name": "modifyAssetPrice",
      "outputs": [],
      "stateMutability": "nonpayable",
      "type": "function"
    },
    {
      "inputs": [
        {
          "internalType": "string",
          "name": "_username",
          "type": "string"
        },
        {
          "internalType": "address",
          "name": "_address",
          "type": "address"
        }
      ],
      "name": "registerUser",
      "outputs": [
        {
          "internalType": "bool",
          "name": "",
          "type": "bool"
        },
        {
          "internalType": "uint256",
          "name": "",
          "type": "uint256"
        }
      ],
      "stateMutability": "nonpayable",
      "type": "function"
    },
    {
      "inputs": [],
      "name": "removeAsset",
      "outputs": [],
      "stateMutability": "nonpayable",
      "type": "function"
    },
    {
      "inputs": [],
      "name": "removeListing",
      "outputs": [],
      "stateMutability": "nonpayable",
      "type": "function"
    },
    {
      "inputs": [
        {
          "internalType": "bytes32",
          "name": "role",
          "type": "bytes32"
        },
        {
          "internalType": "address",
          "name": "callerConfirmation",
          "type": "address"
        }
      ],
      "name": "renounceRole",
      "outputs": [],
      "stateMutability": "nonpayable",
      "type": "function"
    },
    {
      "inputs": [
        {
          "internalType": "bytes32",
          "name": "role",
          "type": "bytes32"
        },
        {
          "internalType": "address",
          "name": "account",
          "type": "address"
        }
      ],
      "name": "revokeRole",
      "outputs": [],
      "stateMutability": "nonpayable",
      "type": "function"
    },
    {
      "inputs": [
        {
          "internalType": "bytes4",
          "name": "interfaceId",
          "type": "bytes4"
        }
      ],
      "name": "supportsInterface",
      "outputs": [
        {
          "internalType": "bool",
          "name": "",
          "type": "bool"
        }
      ],
      "stateMutability": "view",
      "type": "function"
    },
    {
      "inputs": [
        {
          "internalType": "bytes32",
          "name": "",
          "type": "bytes32"
        },
        {
          "internalType": "uint256",
          "name": "",
          "type": "uint256"
        }
      ],
      "name": "userAssets",
      "outputs": [
        {
          "internalType": "address",
          "name": "holderAddress",
          "type": "address"
        },
        {
          "internalType": "bytes32",
          "name": "assetId",
          "type": "bytes32"
        },
        {
          "internalType": "string",
          "name": "description",
          "type": "string"
        },
        {
          "internalType": "uint256",
          "name": "price",
          "type": "uint256"
        },
        {
          "internalType": "enum AssetManager.assetType",
          "name": "classType",
          "type": "uint8"
        }
      ],
      "stateMutability": "view",
      "type": "function"
    },
    {
      "inputs": [
        {
          "internalType": "bytes32",
          "name": "",
          "type": "bytes32"
        },
        {
          "internalType": "uint256",
          "name": "",
          "type": "uint256"
        }
      ],
      "name": "userTransactions",
      "outputs": [
        {
          "internalType": "enum AssetManager.transactionType",
          "name": "",
          "type": "uint8"
        }
      ],
      "stateMutability": "view",
      "type": "function"
    },
    {
      "inputs": [
        {
          "internalType": "uint256",
          "name": "",
          "type": "uint256"
        }
      ],
      "name": "users",
      "outputs": [
        {
          "internalType": "string",
          "name": "username",
          "type": "string"
        },
        {
          "internalType": "address",
          "name": "userAddress",
          "type": "address"
        },
        {
          "internalType": "bytes32",
          "name": "userId",
          "type": "bytes32"
        }
      ],
      "stateMutability": "view",
      "type": "function"
    }
  ],
  "transactionHash": "0xb271ae55e0addf45df5ae8d941fed113a9d07291fbee555a5ec3edd325e12e73",
  "args": [
    "0xE613a5547bc8972D549366fF4D8f2AB5D194239D"
  ],
  "numDeployments": 1,
  "solcInputHash": "4836f40cad57e30f08e5d350ce84ecb4",
  "bytecode": "0x60806040526000600a556000600b5534801561001a57600080fd5b50604051620015f1380380620015f183398101604081905261003b91610114565b600180546001600160a01b0319166001600160a01b038316179055610061600033610068565b5050610144565b6000828152602081815260408083206001600160a01b038516845290915281205460ff1661010a576000838152602081815260408083206001600160a01b03861684529091529020805460ff191660011790556100c23390565b6001600160a01b0316826001600160a01b0316847f2f8788117e7eff1d82e926ec794901d17c78024a50270940304540a733656f0d60405160405180910390a450600161010e565b5060005b92915050565b60006020828403121561012657600080fd5b81516001600160a01b038116811461013d57600080fd5b9392505050565b61149d80620001546000396000f3fe608060405234801561001057600080fd5b50600436106101a85760003560e01c8063749475a4116100f9578063c3c5a54711610097578063d539139311610071578063d539139314610398578063d547741f146103bf578063d88669f2146103d2578063fb7220631461025557600080fd5b8063c3c5a54714610342578063c51309db14610365578063cf35bdd01461038557600080fd5b80639ae6145b116100d35780639ae6145b146102555780639da1c71314610307578063a217fddf14610327578063ad68cec21461032f57600080fd5b8063749475a4146102ca57806391d14854146102ed578063974c86b51461030057600080fd5b8063248a9ca311610166578063308feec311610140578063308feec31461028d57806336568abe14610295578063365b98b2146102a85780636e6452cb1461025557600080fd5b8063248a9ca3146102575780632d0f62aa146102555780632f2ff15d1461027a57600080fd5b80624aaf3e146101ad57806301ffc9a7146101da5780630e54b872146101fd57806311c7256a14610227578063161e71551461025557806319ae039e14610255575b600080fd5b6101c06101bb366004610e99565b6103e5565b6040516101d1959493929190610f21565b60405180910390f35b6101ed6101e8366004610f70565b6104cb565b60405190151581526020016101d1565b61021061020b366004611060565b610502565b6040805192151583526020830191909152016101d1565b6102476102353660046110ae565b60086020526000908152604090205481565b6040519081526020016101d1565b005b6102476102653660046110c9565b60009081526020819052604090206001015490565b6102556102883660046110e2565b61067b565b600a54610247565b6102556102a33660046110e2565b6106a6565b6102bb6102b63660046110c9565b6106de565b6040516101d193929190611105565b6101ed6102d83660046110c9565b60076020526000908152604090205460ff1681565b6101ed6102fb3660046110e2565b6107aa565b60006101ed565b61031a610315366004610e99565b6107d3565b6040516101d19190611147565b610247600081565b6101ed61033d366004611155565b610816565b6101ed6103503660046110ae565b60066020526000908152604090205460ff1681565b6103786103733660046110ae565b6109ba565b6040516101d191906111a5565b6101c06103933660046110c9565b610a56565b6102477f9f2df0fed2c77648de5860a4cc508cd0818c85b8b8a1ab4ceeef8d981c8956a681565b6102556103cd3660046110e2565b610a9c565b6101ed6103e03660046111f0565b610ac1565b6002602052816000526040600020818154811061040157600080fd5b60009182526020909120600590910201805460018201546002830180546001600160a01b039093169550909350906104389061125e565b80601f01602080910402602001604051908101604052809291908181526020018280546104649061125e565b80156104b15780601f10610486576101008083540402835291602001916104b1565b820191906000526020600020905b81548152906001019060200180831161049457829003601f168201915b50505050600383015460049093015491929160ff16905085565b60006001600160e01b03198216637965db0b60e01b14806104fc57506301ffc9a760e01b6001600160e01b03198316145b92915050565b6001600160a01b0381166000908152600660205260408120548190839060ff161561055057604051639e676ee760e01b81526001600160a01b03821660048201526024015b60405180910390fd5b600042868660405160200161056793929190611298565b60408051601f1981840301815282825280516020918201206060840183528984526001600160a01b03891691840191909152908201819052600480546001810182556000919091528251919350829160039091027f8a35acfbc15ff81a39ae7d344fd709f28e8600b4aa8c65c6b64bfe7fe36bd19b019081906105ea908261132a565b50602082810151600183810180546001600160a01b0319166001600160a01b03938416179055604094850151600290940193909355891660009081526006909152918220805460ff19169091179055600a805491610647836113ea565b9091555050506001600160a01b038516600090815260066020526040902054600a5460ff9091169450925050509250929050565b60008281526020819052604090206001015461069681610d52565b6106a08383610d5f565b50505050565b6001600160a01b03811633146106cf5760405163334bd91960e11b815260040160405180910390fd5b6106d98282610df1565b505050565b600481815481106106ee57600080fd5b90600052602060002090600302016000915090508060000180546107119061125e565b80601f016020809104026020016040519081016040528092919081815260200182805461073d9061125e565b801561078a5780601f1061075f5761010080835404028352916020019161078a565b820191906000526020600020905b81548152906001019060200180831161076d57829003601f168201915b50505050600183015460029093015491926001600160a01b031691905083565b6000918252602082815260408084206001600160a01b0393909316845291905290205460ff1690565b600360205281600052604060002081815481106107ef57600080fd5b9060005260206000209060209182820401919006915091509054906101000a900460ff1681565b60008080805b60055481101561086f57866005828154811061083a5761083a611411565b9060005260206000209060050201600101540361085d576001925080915061086f565b80610867816113ea565b91505061081c565b508115610892576040516371f63c5160e11b815260048101879052602401610547565b336001600160a01b0316600582815481106108af576108af611411565b60009182526020909120600590910201546001600160a01b0316146109165760405162461bcd60e51b815260206004820152601e60248201527f43616c6c6572206973206e6f7420746865206173736574206f776e65722e00006044820152606401610547565b836005828154811061092a5761092a611411565b906000526020600020906005020160030181905550846005828154811061095357610953611411565b90600052602060002090600502016002019081610970919061132a565b5050336000908152600960209081526040822080546001808201835591845292829020918304909101805460ff601f9094166101000a938402191690921790915595945050505050565b6001600160a01b038116600090815260096020908152604091829020805483518184028101840190945280845260609392830182828015610a4a57602002820191906000526020600020906000905b82829054906101000a900460ff166004811115610a2857610a28610f0b565b815260206001928301818104948501949093039092029101808411610a095790505b50505050509050919050565b60058181548110610a6657600080fd5b60009182526020909120600590910201805460018201546002830180546001600160a01b0390931694509092916104389061125e565b600082815260208190526040902060010154610ab781610d52565b6106a08383610df1565b60007f9f2df0fed2c77648de5860a4cc508cd0818c85b8b8a1ab4ceeef8d981c8956a6610aed81610d52565b6000868486604051602001610b0493929190611427565b60405160208183030381529060405280519060200120905060006040518060a00160405280896001600160a01b03168152602001838152602001888152602001878152602001866005811115610b5c57610b5c610f0b565b90526001546040516340d097c360e01b81526001600160a01b038b811660048301529293509116906340d097c390602401600060405180830381600087803b158015610ba757600080fd5b505af1158015610bbb573d6000803e3d6000fd5b5050600580546001810182556000829052845191027f036b6384b5eca791c62761152d0c79bb0604c104a5fb6f4eb0703f3154bb3db0810180546001600160a01b039093166001600160a01b031990931692909217825560208501517f036b6384b5eca791c62761152d0c79bb0604c104a5fb6f4eb0703f3154bb3db182015560408501518594509192507f036b6384b5eca791c62761152d0c79bb0604c104a5fb6f4eb0703f3154bb3db20190610c73908261132a565b5060608201516003820155608082015160048201805460ff19166001836005811115610ca157610ca1610f0b565b021790555050506001600160a01b0388166000908152600860205260408120805491610ccc836113ea565b9091555050600b8054906000610ce1836113ea565b90915550506000828152600760209081526040808320805460ff191660019081179091556001600160a01b038c1684526009835290832080549182018155835291819020908204018054600392601f166101000a60ff81021990911690830217905550600198975050505050505050565b610d5c8133610e5c565b50565b6000610d6b83836107aa565b610de9576000838152602081815260408083206001600160a01b03861684529091529020805460ff19166001179055610da13390565b6001600160a01b0316826001600160a01b0316847f2f8788117e7eff1d82e926ec794901d17c78024a50270940304540a733656f0d60405160405180910390a45060016104fc565b5060006104fc565b6000610dfd83836107aa565b15610de9576000838152602081815260408083206001600160a01b0386168085529252808320805460ff1916905551339286917ff6391f5c32d9c69d2a47ea670b442974b53935d1edc7fd64eb21e047a839171b9190a45060016104fc565b610e6682826107aa565b610e955760405163e2517d3f60e01b81526001600160a01b038216600482015260248101839052604401610547565b5050565b60008060408385031215610eac57600080fd5b50508035926020909101359150565b60005b83811015610ed6578181015183820152602001610ebe565b50506000910152565b60008151808452610ef7816020860160208601610ebb565b601f01601f19169290920160200192915050565b634e487b7160e01b600052602160045260246000fd5b60018060a01b038616815284602082015260a060408201526000610f4860a0830186610edf565b905083606083015260068310610f6057610f60610f0b565b8260808301529695505050505050565b600060208284031215610f8257600080fd5b81356001600160e01b031981168114610f9a57600080fd5b9392505050565b634e487b7160e01b600052604160045260246000fd5b600082601f830112610fc857600080fd5b813567ffffffffffffffff80821115610fe357610fe3610fa1565b604051601f8301601f19908116603f0116810190828211818310171561100b5761100b610fa1565b8160405283815286602085880101111561102457600080fd5b836020870160208301376000602085830101528094505050505092915050565b80356001600160a01b038116811461105b57600080fd5b919050565b6000806040838503121561107357600080fd5b823567ffffffffffffffff81111561108a57600080fd5b61109685828601610fb7565b9250506110a560208401611044565b90509250929050565b6000602082840312156110c057600080fd5b610f9a82611044565b6000602082840312156110db57600080fd5b5035919050565b600080604083850312156110f557600080fd5b823591506110a560208401611044565b6060815260006111186060830186610edf565b6001600160a01b039490941660208301525060400152919050565b6005811061114357611143610f0b565b9052565b602081016104fc8284611133565b60008060006060848603121561116a57600080fd5b83359250602084013567ffffffffffffffff81111561118857600080fd5b61119486828701610fb7565b925050604084013590509250925092565b6020808252825182820181905260009190848201906040850190845b818110156111e4576111d4838551611133565b92840192918401916001016111c1565b50909695505050505050565b6000806000806080858703121561120657600080fd5b61120f85611044565b9350602085013567ffffffffffffffff81111561122b57600080fd5b61123787828801610fb7565b9350506040850135915060608501356006811061125357600080fd5b939692955090935050565b600181811c9082168061127257607f821691505b60208210810361129257634e487b7160e01b600052602260045260246000fd5b50919050565b838152600083516112b0816020850160208801610ebb565b60609390931b6bffffffffffffffffffffffff1916602092909301918201929092526034019392505050565b601f8211156106d957600081815260208120601f850160051c810160208610156113035750805b601f850160051c820191505b818110156113225782815560010161130f565b505050505050565b815167ffffffffffffffff81111561134457611344610fa1565b61135881611352845461125e565b846112dc565b602080601f83116001811461138d57600084156113755750858301515b600019600386901b1c1916600185901b178555611322565b600085815260208120601f198616915b828110156113bc5788860151825594840194600190910190840161139d565b50858210156113da5787850151600019600388901b60f8161c191681555b5050505050600190811b01905550565b60006001820161140a57634e487b7160e01b600052601160045260246000fd5b5060010190565b634e487b7160e01b600052603260045260246000fd5b6bffffffffffffffffffffffff198460601b16815260006006841061144e5761144e610f0b565b5060f89290921b6014830152601582015260350191905056fea264697066735822122098b75cea3180af406249623aa05c1c408b9be7154ca1a1ef8d7a0ada463fb1f764736f6c63430008140033",
  "devdoc": {
    "errors": {
      "AccessControlBadConfirmation()": [
        {
          "details": "The caller of a function is not the expected one. NOTE: Don't confuse with {AccessControlUnauthorizedAccount}."
        }
      ],
      "AccessControlUnauthorizedAccount(address,bytes32)": [
        {
          "details": "The `account` is missing a role."
        }
      ]
    },
    "events": {
      "RoleAdminChanged(bytes32,bytes32,bytes32)": {
        "details": "Emitted when `newAdminRole` is set as ``role``'s admin role, replacing `previousAdminRole` `DEFAULT_ADMIN_ROLE` is the starting admin for all roles, despite {RoleAdminChanged} not being emitted signaling this."
      },
      "RoleGranted(bytes32,address,address)": {
        "details": "Emitted when `account` is granted `role`. `sender` is the account that originated the contract call, an admin role bearer except when using {AccessControl-_setupRole}."
      },
      "RoleRevoked(bytes32,address,address)": {
        "details": "Emitted when `account` is revoked `role`. `sender` is the account that originated the contract call:   - if using `revokeRole`, it is the admin role bearer   - if using `renounceRole`, it is the role bearer (i.e. `account`)"
      }
    },
    "kind": "dev",
    "methods": {
      "getRoleAdmin(bytes32)": {
        "details": "Returns the admin role that controls `role`. See {grantRole} and {revokeRole}. To change a role's admin, use {_setRoleAdmin}."
      },
      "grantRole(bytes32,address)": {
        "details": "Grants `role` to `account`. If `account` had not been already granted `role`, emits a {RoleGranted} event. Requirements: - the caller must have ``role``'s admin role. May emit a {RoleGranted} event."
      },
      "hasRole(bytes32,address)": {
        "details": "Returns `true` if `account` has been granted `role`."
      },
      "renounceRole(bytes32,address)": {
        "details": "Revokes `role` from the calling account. Roles are often managed via {grantRole} and {revokeRole}: this function's purpose is to provide a mechanism for accounts to lose their privileges if they are compromised (such as when a trusted device is misplaced). If the calling account had been revoked `role`, emits a {RoleRevoked} event. Requirements: - the caller must be `callerConfirmation`. May emit a {RoleRevoked} event."
      },
      "revokeRole(bytes32,address)": {
        "details": "Revokes `role` from `account`. If `account` had been granted `role`, emits a {RoleRevoked} event. Requirements: - the caller must have ``role``'s admin role. May emit a {RoleRevoked} event."
      },
      "supportsInterface(bytes4)": {
        "details": "See {IERC165-supportsInterface}."
      }
    },
    "version": 1
  },
  "userdoc": {
    "kind": "user",
    "methods": {},
    "version": 1
  },
  "storageLayout": {
    "storage": [
      {
        "astId": 26,
        "contract": "contracts/AssetsManagerV1.sol:AssetManager",
        "label": "_roles",
        "offset": 0,
        "slot": "0",
        "type": "t_mapping(t_bytes32,t_struct(RoleData)21_storage)"
      },
      {
        "astId": 3349,
        "contract": "contracts/AssetsManagerV1.sol:AssetManager",
        "label": "zephyrNft",
        "offset": 0,
        "slot": "1",
        "type": "t_contract(Zephyr)3911"
      },
      {
        "astId": 3461,
        "contract": "contracts/AssetsManagerV1.sol:AssetManager",
        "label": "userAssets",
        "offset": 0,
        "slot": "2",
        "type": "t_mapping(t_bytes32,t_array(t_struct(Assets)3435_storage)dyn_storage)"
      },
      {
        "astId": 3467,
        "contract": "contracts/AssetsManagerV1.sol:AssetManager",
        "label": "userTransactions",
        "offset": 0,
        "slot": "3",
        "type": "t_mapping(t_bytes32,t_array(t_enum(transactionType)3448)dyn_storage)"
      },
      {
        "astId": 3471,
        "contract": "contracts/AssetsManagerV1.sol:AssetManager",
        "label": "users",
        "offset": 0,
        "slot": "4",
        "type": "t_array(t_struct(User)3455_storage)dyn_storage"
      },
      {
        "astId": 3475,
        "contract": "contracts/AssetsManagerV1.sol:AssetManager",
        "label": "assets",
        "offset": 0,
        "slot": "5",
        "type": "t_array(t_struct(Assets)3435_storage)dyn_storage"
      },
      {
        "astId": 3479,
        "contract": "contracts/AssetsManagerV1.sol:AssetManager",
        "label": "isRegistered",
        "offset": 0,
        "slot": "6",
        "type": "t_mapping(t_address,t_bool)"
      },
      {
        "astId": 3483,
        "contract": "contracts/AssetsManagerV1.sol:AssetManager",
        "label": "idExists",
        "offset": 0,
        "slot": "7",
        "type": "t_mapping(t_bytes32,t_bool)"
      },
      {
        "astId": 3487,
        "contract": "contracts/AssetsManagerV1.sol:AssetManager",
        "label": "HoldingAssets",
        "offset": 0,
        "slot": "8",
        "type": "t_mapping(t_address,t_uint256)"
      },
      {
        "astId": 3493,
        "contract": "contracts/AssetsManagerV1.sol:AssetManager",
        "label": "transactionHistory",
        "offset": 0,
        "slot": "9",
        "type": "t_mapping(t_address,t_array(t_enum(transactionType)3448)dyn_storage)"
      },
      {
        "astId": 3496,
        "contract": "contracts/AssetsManagerV1.sol:AssetManager",
        "label": "TotalUsers",
        "offset": 0,
        "slot": "10",
        "type": "t_uint256"
      },
      {
        "astId": 3499,
        "contract": "contracts/AssetsManagerV1.sol:AssetManager",
        "label": "TotalAssets",
        "offset": 0,
        "slot": "11",
        "type": "t_uint256"
      }
    ],
    "types": {
      "t_address": {
        "encoding": "inplace",
        "label": "address",
        "numberOfBytes": "20"
      },
      "t_array(t_enum(transactionType)3448)dyn_storage": {
        "base": "t_enum(transactionType)3448",
        "encoding": "dynamic_array",
        "label": "enum AssetManager.transactionType[]",
        "numberOfBytes": "32"
      },
      "t_array(t_struct(Assets)3435_storage)dyn_storage": {
        "base": "t_struct(Assets)3435_storage",
        "encoding": "dynamic_array",
        "label": "struct AssetManager.Assets[]",
        "numberOfBytes": "32"
      },
      "t_array(t_struct(User)3455_storage)dyn_storage": {
        "base": "t_struct(User)3455_storage",
        "encoding": "dynamic_array",
        "label": "struct AssetManager.User[]",
        "numberOfBytes": "32"
      },
      "t_bool": {
        "encoding": "inplace",
        "label": "bool",
        "numberOfBytes": "1"
      },
      "t_bytes32": {
        "encoding": "inplace",
        "label": "bytes32",
        "numberOfBytes": "32"
      },
      "t_contract(Zephyr)3911": {
        "encoding": "inplace",
        "label": "contract Zephyr",
        "numberOfBytes": "20"
      },
      "t_enum(assetType)3442": {
        "encoding": "inplace",
        "label": "enum AssetManager.assetType",
        "numberOfBytes": "1"
      },
      "t_enum(transactionType)3448": {
        "encoding": "inplace",
        "label": "enum AssetManager.transactionType",
        "numberOfBytes": "1"
      },
      "t_mapping(t_address,t_array(t_enum(transactionType)3448)dyn_storage)": {
        "encoding": "mapping",
        "key": "t_address",
        "label": "mapping(address => enum AssetManager.transactionType[])",
        "numberOfBytes": "32",
        "value": "t_array(t_enum(transactionType)3448)dyn_storage"
      },
      "t_mapping(t_address,t_bool)": {
        "encoding": "mapping",
        "key": "t_address",
        "label": "mapping(address => bool)",
        "numberOfBytes": "32",
        "value": "t_bool"
      },
      "t_mapping(t_address,t_uint256)": {
        "encoding": "mapping",
        "key": "t_address",
        "label": "mapping(address => uint256)",
        "numberOfBytes": "32",
        "value": "t_uint256"
      },
      "t_mapping(t_bytes32,t_array(t_enum(transactionType)3448)dyn_storage)": {
        "encoding": "mapping",
        "key": "t_bytes32",
        "label": "mapping(bytes32 => enum AssetManager.transactionType[])",
        "numberOfBytes": "32",
        "value": "t_array(t_enum(transactionType)3448)dyn_storage"
      },
      "t_mapping(t_bytes32,t_array(t_struct(Assets)3435_storage)dyn_storage)": {
        "encoding": "mapping",
        "key": "t_bytes32",
        "label": "mapping(bytes32 => struct AssetManager.Assets[])",
        "numberOfBytes": "32",
        "value": "t_array(t_struct(Assets)3435_storage)dyn_storage"
      },
      "t_mapping(t_bytes32,t_bool)": {
        "encoding": "mapping",
        "key": "t_bytes32",
        "label": "mapping(bytes32 => bool)",
        "numberOfBytes": "32",
        "value": "t_bool"
      },
      "t_mapping(t_bytes32,t_struct(RoleData)21_storage)": {
        "encoding": "mapping",
        "key": "t_bytes32",
        "label": "mapping(bytes32 => struct AccessControl.RoleData)",
        "numberOfBytes": "32",
        "value": "t_struct(RoleData)21_storage"
      },
      "t_string_storage": {
        "encoding": "bytes",
        "label": "string",
        "numberOfBytes": "32"
      },
      "t_struct(Assets)3435_storage": {
        "encoding": "inplace",
        "label": "struct AssetManager.Assets",
        "members": [
          {
            "astId": 3425,
            "contract": "contracts/AssetsManagerV1.sol:AssetManager",
            "label": "holderAddress",
            "offset": 0,
            "slot": "0",
            "type": "t_address"
          },
          {
            "astId": 3427,
            "contract": "contracts/AssetsManagerV1.sol:AssetManager",
            "label": "assetId",
            "offset": 0,
            "slot": "1",
            "type": "t_bytes32"
          },
          {
            "astId": 3429,
            "contract": "contracts/AssetsManagerV1.sol:AssetManager",
            "label": "description",
            "offset": 0,
            "slot": "2",
            "type": "t_string_storage"
          },
          {
            "astId": 3431,
            "contract": "contracts/AssetsManagerV1.sol:AssetManager",
            "label": "price",
            "offset": 0,
            "slot": "3",
            "type": "t_uint256"
          },
          {
            "astId": 3434,
            "contract": "contracts/AssetsManagerV1.sol:AssetManager",
            "label": "classType",
            "offset": 0,
            "slot": "4",
            "type": "t_enum(assetType)3442"
          }
        ],
        "numberOfBytes": "160"
      },
      "t_struct(RoleData)21_storage": {
        "encoding": "inplace",
        "label": "struct AccessControl.RoleData",
        "members": [
          {
            "astId": 18,
            "contract": "contracts/AssetsManagerV1.sol:AssetManager",
            "label": "hasRole",
            "offset": 0,
            "slot": "0",
            "type": "t_mapping(t_address,t_bool)"
          },
          {
            "astId": 20,
            "contract": "contracts/AssetsManagerV1.sol:AssetManager",
            "label": "adminRole",
            "offset": 0,
            "slot": "1",
            "type": "t_bytes32"
          }
        ],
        "numberOfBytes": "64"
      },
      "t_struct(User)3455_storage": {
        "encoding": "inplace",
        "label": "struct AssetManager.User",
        "members": [
          {
            "astId": 3450,
            "contract": "contracts/AssetsManagerV1.sol:AssetManager",
            "label": "username",
            "offset": 0,
            "slot": "0",
            "type": "t_string_storage"
          },
          {
            "astId": 3452,
            "contract": "contracts/AssetsManagerV1.sol:AssetManager",
            "label": "userAddress",
            "offset": 0,
            "slot": "1",
            "type": "t_address"
          },
          {
            "astId": 3454,
            "contract": "contracts/AssetsManagerV1.sol:AssetManager",
            "label": "userId",
            "offset": 0,
            "slot": "2",
            "type": "t_bytes32"
          }
        ],
        "numberOfBytes": "96"
      },
      "t_uint256": {
        "encoding": "inplace",
        "label": "uint256",
        "numberOfBytes": "32"
      }
    }
  }
}